{
  "_format": "hh-sol-artifact-1",
  "contractName": "BasicMarketplace",
  "sourceName": "contracts/BasicMarketplace.sol",
  "abi": [
    {
      "inputs": [],
      "stateMutability": "nonpayable",
      "type": "constructor"
    },
    {
      "anonymous": false,
      "inputs": [
        {
          "indexed": true,
          "internalType": "uint256",
          "name": "_productId",
          "type": "uint256"
        }
      ],
      "name": "savingsEvent",
      "type": "event"
    },
    {
      "inputs": [
        {
          "internalType": "string",
          "name": "itemName",
          "type": "string"
        },
        {
          "internalType": "uint256",
          "name": "askingPrice",
          "type": "uint256"
        }
      ],
      "name": "addProduct",
      "outputs": [],
      "stateMutability": "nonpayable",
      "type": "function"
    },
    {
      "inputs": [
        {
          "internalType": "uint256",
          "name": "productId",
          "type": "uint256"
        }
      ],
      "name": "getProduct",
      "outputs": [
        {
          "components": [
            {
              "internalType": "uint256",
              "name": "id",
              "type": "uint256"
            },
            {
              "internalType": "string",
              "name": "itemName",
              "type": "string"
            },
            {
              "internalType": "address",
              "name": "creator",
              "type": "address"
            },
            {
              "internalType": "address",
              "name": "owner",
              "type": "address"
            },
            {
              "internalType": "uint256",
              "name": "askingPrice",
              "type": "uint256"
            },
            {
              "internalType": "bool",
              "name": "isSold",
              "type": "bool"
            }
          ],
          "internalType": "struct BasicMarketplace.Product",
          "name": "",
          "type": "tuple"
        }
      ],
      "stateMutability": "view",
      "type": "function"
    },
    {
      "inputs": [],
      "name": "getProducts",
      "outputs": [
        {
          "components": [
            {
              "internalType": "uint256",
              "name": "id",
              "type": "uint256"
            },
            {
              "internalType": "string",
              "name": "itemName",
              "type": "string"
            },
            {
              "internalType": "address",
              "name": "creator",
              "type": "address"
            },
            {
              "internalType": "address",
              "name": "owner",
              "type": "address"
            },
            {
              "internalType": "uint256",
              "name": "askingPrice",
              "type": "uint256"
            },
            {
              "internalType": "bool",
              "name": "isSold",
              "type": "bool"
            }
          ],
          "internalType": "struct BasicMarketplace.Product[]",
          "name": "",
          "type": "tuple[]"
        }
      ],
      "stateMutability": "view",
      "type": "function"
    },
    {
      "inputs": [],
      "name": "numProduct",
      "outputs": [
        {
          "internalType": "uint256",
          "name": "",
          "type": "uint256"
        }
      ],
      "stateMutability": "view",
      "type": "function"
    },
    {
      "inputs": [
        {
          "internalType": "uint256",
          "name": "",
          "type": "uint256"
        }
      ],
      "name": "products",
      "outputs": [
        {
          "internalType": "uint256",
          "name": "id",
          "type": "uint256"
        },
        {
          "internalType": "string",
          "name": "itemName",
          "type": "string"
        },
        {
          "internalType": "address",
          "name": "creator",
          "type": "address"
        },
        {
          "internalType": "address",
          "name": "owner",
          "type": "address"
        },
        {
          "internalType": "uint256",
          "name": "askingPrice",
          "type": "uint256"
        },
        {
          "internalType": "bool",
          "name": "isSold",
          "type": "bool"
        }
      ],
      "stateMutability": "view",
      "type": "function"
    },
    {
      "inputs": [
        {
          "internalType": "uint256",
          "name": "productId",
          "type": "uint256"
        }
      ],
      "name": "sellProduct",
      "outputs": [],
      "stateMutability": "nonpayable",
      "type": "function"
    }
  ],
  "bytecode": "0x608060405234801561001057600080fd5b506000600181905550611199806100286000396000f3fe608060405234801561001057600080fd5b50600436106100625760003560e01c8063492deb15146100675780637acc0b2014610083578063b15247d9146100b8578063b9db15b4146100d4578063c29b2f2014610104578063ddd2e8a914610122575b600080fd5b610081600480360381019061007c9190610a87565b610140565b005b61009d60048036038101906100989190610a87565b6101ba565b6040516100af96959493929190610bb8565b60405180910390f35b6100d260048036038101906100cd9190610d55565b6102cb565b005b6100ee60048036038101906100e99190610a87565b610565565b6040516100fb9190610eb1565b60405180910390f35b61010c6106fe565b604051610119919061101e565b60405180910390f35b61012a610930565b6040516101379190611040565b60405180910390f35b60008060008381526020019081526020016000209050338160030160006101000a81548173ffffffffffffffffffffffffffffffffffffffff021916908373ffffffffffffffffffffffffffffffffffffffff16021790555060018160050160006101000a81548160ff0219169083151502179055505050565b60006020528060005260406000206000915090508060000154908060010180546101e39061108a565b80601f016020809104026020016040519081016040528092919081815260200182805461020f9061108a565b801561025c5780601f106102315761010080835404028352916020019161025c565b820191906000526020600020905b81548152906001019060200180831161023f57829003601f168201915b5050505050908060020160009054906101000a900473ffffffffffffffffffffffffffffffffffffffff16908060030160009054906101000a900473ffffffffffffffffffffffffffffffffffffffff16908060040154908060050160009054906101000a900460ff16905086565b600080600060015481526020019081526020016000209050338160020160006101000a81548173ffffffffffffffffffffffffffffffffffffffff021916908373ffffffffffffffffffffffffffffffffffffffff160217905550338160030160006101000a81548173ffffffffffffffffffffffffffffffffffffffff021916908373ffffffffffffffffffffffffffffffffffffffff1602179055508181600401819055508281600101908051906020019061038a929190610936565b5060008160050160006101000a81548160ff0219169083151502179055506040518060c0016040528060015481526020018481526020018260020160009054906101000a900473ffffffffffffffffffffffffffffffffffffffff1673ffffffffffffffffffffffffffffffffffffffff1681526020018260030160009054906101000a900473ffffffffffffffffffffffffffffffffffffffff1673ffffffffffffffffffffffffffffffffffffffff1681526020018260040154815260200160001515815250600080600154815260200190815260200160002060008201518160000155602082015181600101908051906020019061048c929190610936565b5060408201518160020160006101000a81548173ffffffffffffffffffffffffffffffffffffffff021916908373ffffffffffffffffffffffffffffffffffffffff16021790555060608201518160030160006101000a81548173ffffffffffffffffffffffffffffffffffffffff021916908373ffffffffffffffffffffffffffffffffffffffff1602179055506080820151816004015560a08201518160050160006101000a81548160ff0219169083151502179055509050506001600081548092919061055b906110eb565b9190505550505050565b61056d6109bc565b6000808381526020019081526020016000206040518060c0016040529081600082015481526020016001820180546105a49061108a565b80601f01602080910402602001604051908101604052809291908181526020018280546105d09061108a565b801561061d5780601f106105f25761010080835404028352916020019161061d565b820191906000526020600020905b81548152906001019060200180831161060057829003601f168201915b505050505081526020016002820160009054906101000a900473ffffffffffffffffffffffffffffffffffffffff1673ffffffffffffffffffffffffffffffffffffffff1673ffffffffffffffffffffffffffffffffffffffff1681526020016003820160009054906101000a900473ffffffffffffffffffffffffffffffffffffffff1673ffffffffffffffffffffffffffffffffffffffff1673ffffffffffffffffffffffffffffffffffffffff168152602001600482015481526020016005820160009054906101000a900460ff1615151515815250509050919050565b6060600060015467ffffffffffffffff81111561071e5761071d610c2a565b5b60405190808252806020026020018201604052801561075757816020015b6107446109bc565b81526020019060019003908161073c5790505b50905060005b6001548110156109285760008060008381526020019081526020016000209050806040518060c0016040529081600082015481526020016001820180546107a39061108a565b80601f01602080910402602001604051908101604052809291908181526020018280546107cf9061108a565b801561081c5780601f106107f15761010080835404028352916020019161081c565b820191906000526020600020905b8154815290600101906020018083116107ff57829003601f168201915b505050505081526020016002820160009054906101000a900473ffffffffffffffffffffffffffffffffffffffff1673ffffffffffffffffffffffffffffffffffffffff1673ffffffffffffffffffffffffffffffffffffffff1681526020016003820160009054906101000a900473ffffffffffffffffffffffffffffffffffffffff1673ffffffffffffffffffffffffffffffffffffffff1673ffffffffffffffffffffffffffffffffffffffff168152602001600482015481526020016005820160009054906101000a900460ff16151515158152505083838151811061090957610908611134565b5b6020026020010181905250508080610920906110eb565b91505061075d565b508091505090565b60015481565b8280546109429061108a565b90600052602060002090601f01602090048101928261096457600085556109ab565b82601f1061097d57805160ff19168380011785556109ab565b828001600101855582156109ab579182015b828111156109aa57825182559160200191906001019061098f565b5b5090506109b89190610a20565b5090565b6040518060c001604052806000815260200160608152602001600073ffffffffffffffffffffffffffffffffffffffff168152602001600073ffffffffffffffffffffffffffffffffffffffff168152602001600081526020016000151581525090565b5b80821115610a39576000816000905550600101610a21565b5090565b6000604051905090565b600080fd5b600080fd5b6000819050919050565b610a6481610a51565b8114610a6f57600080fd5b50565b600081359050610a8181610a5b565b92915050565b600060208284031215610a9d57610a9c610a47565b5b6000610aab84828501610a72565b91505092915050565b610abd81610a51565b82525050565b600081519050919050565b600082825260208201905092915050565b60005b83811015610afd578082015181840152602081019050610ae2565b83811115610b0c576000848401525b50505050565b6000601f19601f8301169050919050565b6000610b2e82610ac3565b610b388185610ace565b9350610b48818560208601610adf565b610b5181610b12565b840191505092915050565b600073ffffffffffffffffffffffffffffffffffffffff82169050919050565b6000610b8782610b5c565b9050919050565b610b9781610b7c565b82525050565b60008115159050919050565b610bb281610b9d565b82525050565b600060c082019050610bcd6000830189610ab4565b8181036020830152610bdf8188610b23565b9050610bee6040830187610b8e565b610bfb6060830186610b8e565b610c086080830185610ab4565b610c1560a0830184610ba9565b979650505050505050565b600080fd5b600080fd5b7f4e487b7100000000000000000000000000000000000000000000000000000000600052604160045260246000fd5b610c6282610b12565b810181811067ffffffffffffffff82111715610c8157610c80610c2a565b5b80604052505050565b6000610c94610a3d565b9050610ca08282610c59565b919050565b600067ffffffffffffffff821115610cc057610cbf610c2a565b5b610cc982610b12565b9050602081019050919050565b82818337600083830152505050565b6000610cf8610cf384610ca5565b610c8a565b905082815260208101848484011115610d1457610d13610c25565b5b610d1f848285610cd6565b509392505050565b600082601f830112610d3c57610d3b610c20565b5b8135610d4c848260208601610ce5565b91505092915050565b60008060408385031215610d6c57610d6b610a47565b5b600083013567ffffffffffffffff811115610d8a57610d89610a4c565b5b610d9685828601610d27565b9250506020610da785828601610a72565b9150509250929050565b610dba81610a51565b82525050565b600082825260208201905092915050565b6000610ddc82610ac3565b610de68185610dc0565b9350610df6818560208601610adf565b610dff81610b12565b840191505092915050565b610e1381610b7c565b82525050565b610e2281610b9d565b82525050565b600060c083016000830151610e406000860182610db1565b5060208301518482036020860152610e588282610dd1565b9150506040830151610e6d6040860182610e0a565b506060830151610e806060860182610e0a565b506080830151610e936080860182610db1565b5060a0830151610ea660a0860182610e19565b508091505092915050565b60006020820190508181036000830152610ecb8184610e28565b905092915050565b600081519050919050565b600082825260208201905092915050565b6000819050602082019050919050565b600060c083016000830151610f176000860182610db1565b5060208301518482036020860152610f2f8282610dd1565b9150506040830151610f446040860182610e0a565b506060830151610f576060860182610e0a565b506080830151610f6a6080860182610db1565b5060a0830151610f7d60a0860182610e19565b508091505092915050565b6000610f948383610eff565b905092915050565b6000602082019050919050565b6000610fb482610ed3565b610fbe8185610ede565b935083602082028501610fd085610eef565b8060005b8581101561100c5784840389528151610fed8582610f88565b9450610ff883610f9c565b925060208a01995050600181019050610fd4565b50829750879550505050505092915050565b600060208201905081810360008301526110388184610fa9565b905092915050565b60006020820190506110556000830184610ab4565b92915050565b7f4e487b7100000000000000000000000000000000000000000000000000000000600052602260045260246000fd5b600060028204905060018216806110a257607f821691505b602082108114156110b6576110b561105b565b5b50919050565b7f4e487b7100000000000000000000000000000000000000000000000000000000600052601160045260246000fd5b60006110f682610a51565b91507fffffffffffffffffffffffffffffffffffffffffffffffffffffffffffffffff821415611129576111286110bc565b5b600182019050919050565b7f4e487b7100000000000000000000000000000000000000000000000000000000600052603260045260246000fdfea264697066735822122009e6b40748df2e8e60d2f05c74e937a247f33542b9c7df6b8eb3c67ed735687e64736f6c634300080a0033",
  "linkReferences": {},
  "deployedLinkReferences": {}
}